:030000000208866D
:0C088600787FE4F6D8FD758108020800B8
:1008000075900112085875900312085875900212DD
:10081000085875900612085875900412085875907B
:100820000C1208587590081208587590091208584B
:0208300080CE78
:10085800E4F508AF081208327FE87E031208710534
:0808680008E508C3940640EB0B
:010870002265
:10087100D3EF9400EE9400400B7DFADDFEEF1F7084
:04088100EF1E80ECFA
:010885002250
:10083200EF24FE6011146012146013146014240477
:10084200701375A0F92275A0A42275A0B02275A01C
:06085200992275A092221C
:00000001FF
